{
  "contractName": "EVoting",
  "abi": [
    {
      "inputs": [
        {
          "internalType": "uint256",
          "name": "startTime_",
          "type": "uint256"
        },
        {
          "internalType": "uint256",
          "name": "endTime_",
          "type": "uint256"
        }
      ],
      "stateMutability": "nonpayable",
      "type": "constructor"
    },
    {
      "inputs": [
        {
          "internalType": "uint256",
          "name": "",
          "type": "uint256"
        }
      ],
      "name": "candidate",
      "outputs": [
        {
          "internalType": "string",
          "name": "name",
          "type": "string"
        },
        {
          "internalType": "string",
          "name": "partyName",
          "type": "string"
        },
        {
          "internalType": "uint256",
          "name": "nominationNumber",
          "type": "uint256"
        },
        {
          "internalType": "uint8",
          "name": "stateCode",
          "type": "uint8"
        },
        {
          "internalType": "uint8",
          "name": "constituencyCode",
          "type": "uint8"
        }
      ],
      "stateMutability": "view",
      "type": "function",
      "constant": true
    },
    {
      "inputs": [
        {
          "internalType": "uint256",
          "name": "",
          "type": "uint256"
        }
      ],
      "name": "candidates",
      "outputs": [
        {
          "internalType": "string",
          "name": "name",
          "type": "string"
        },
        {
          "internalType": "string",
          "name": "partyName",
          "type": "string"
        },
        {
          "internalType": "uint256",
          "name": "nominationNumber",
          "type": "uint256"
        },
        {
          "internalType": "uint8",
          "name": "stateCode",
          "type": "uint8"
        },
        {
          "internalType": "uint8",
          "name": "constituencyCode",
          "type": "uint8"
        }
      ],
      "stateMutability": "view",
      "type": "function",
      "constant": true
    },
    {
      "inputs": [],
      "name": "electionChief",
      "outputs": [
        {
          "internalType": "address",
          "name": "",
          "type": "address"
        }
      ],
      "stateMutability": "view",
      "type": "function",
      "constant": true
    },
    {
      "inputs": [],
      "name": "votingEndTime",
      "outputs": [
        {
          "internalType": "uint256",
          "name": "",
          "type": "uint256"
        }
      ],
      "stateMutability": "view",
      "type": "function",
      "constant": true
    },
    {
      "inputs": [],
      "name": "votingStartTime",
      "outputs": [
        {
          "internalType": "uint256",
          "name": "",
          "type": "uint256"
        }
      ],
      "stateMutability": "view",
      "type": "function",
      "constant": true
    },
    {
      "inputs": [
        {
          "internalType": "uint256",
          "name": "voterAadharNumber",
          "type": "uint256"
        }
      ],
      "name": "getCandidateList",
      "outputs": [
        {
          "components": [
            {
              "internalType": "string",
              "name": "name",
              "type": "string"
            },
            {
              "internalType": "string",
              "name": "partyName",
              "type": "string"
            },
            {
              "internalType": "uint256",
              "name": "nominationNumber",
              "type": "uint256"
            },
            {
              "internalType": "uint8",
              "name": "stateCode",
              "type": "uint8"
            },
            {
              "internalType": "uint8",
              "name": "constituencyCode",
              "type": "uint8"
            }
          ],
          "internalType": "struct Types.Candidate[]",
          "name": "",
          "type": "tuple[]"
        }
      ],
      "stateMutability": "view",
      "type": "function",
      "constant": true
    },
    {
      "inputs": [
        {
          "internalType": "uint256",
          "name": "voterAadharNumber",
          "type": "uint256"
        }
      ],
      "name": "isVoterEligible",
      "outputs": [
        {
          "internalType": "bool",
          "name": "voterEligible_",
          "type": "bool"
        }
      ],
      "stateMutability": "view",
      "type": "function",
      "constant": true
    },
    {
      "inputs": [
        {
          "internalType": "uint256",
          "name": "voterAadharNumber",
          "type": "uint256"
        }
      ],
      "name": "didCurrentVoterVoted",
      "outputs": [
        {
          "internalType": "bool",
          "name": "userVoted_",
          "type": "bool"
        },
        {
          "components": [
            {
              "internalType": "string",
              "name": "name",
              "type": "string"
            },
            {
              "internalType": "string",
              "name": "partyName",
              "type": "string"
            },
            {
              "internalType": "uint256",
              "name": "nominationNumber",
              "type": "uint256"
            },
            {
              "internalType": "uint8",
              "name": "stateCode",
              "type": "uint8"
            },
            {
              "internalType": "uint8",
              "name": "constituencyCode",
              "type": "uint8"
            }
          ],
          "internalType": "struct Types.Candidate",
          "name": "candidate_",
          "type": "tuple"
        }
      ],
      "stateMutability": "view",
      "type": "function",
      "constant": true
    },
    {
      "inputs": [
        {
          "internalType": "uint256",
          "name": "nominationNumber",
          "type": "uint256"
        },
        {
          "internalType": "uint256",
          "name": "voterAadharNumber",
          "type": "uint256"
        },
        {
          "internalType": "uint256",
          "name": "currentTime_",
          "type": "uint256"
        }
      ],
      "name": "vote",
      "outputs": [],
      "stateMutability": "nonpayable",
      "type": "function"
    },
    {
      "inputs": [],
      "name": "getVotingEndTime",
      "outputs": [
        {
          "internalType": "uint256",
          "name": "endTime_",
          "type": "uint256"
        }
      ],
      "stateMutability": "view",
      "type": "function",
      "constant": true
    },
    {
      "inputs": [
        {
          "internalType": "uint256",
          "name": "startTime_",
          "type": "uint256"
        },
        {
          "internalType": "uint256",
          "name": "currentTime_",
          "type": "uint256"
        }
      ],
      "name": "updateVotingStartTime",
      "outputs": [],
      "stateMutability": "nonpayable",
      "type": "function"
    },
    {
      "inputs": [
        {
          "internalType": "uint256",
          "name": "endTime_",
          "type": "uint256"
        },
        {
          "internalType": "uint256",
          "name": "currentTime_",
          "type": "uint256"
        }
      ],
      "name": "extendVotingTime",
      "outputs": [],
      "stateMutability": "nonpayable",
      "type": "function"
    },
    {
      "inputs": [
        {
          "internalType": "uint256",
          "name": "currentTime_",
          "type": "uint256"
        }
      ],
      "name": "getResults",
      "outputs": [
        {
          "components": [
            {
              "internalType": "string",
              "name": "name",
              "type": "string"
            },
            {
              "internalType": "string",
              "name": "partyName",
              "type": "string"
            },
            {
              "internalType": "uint256",
              "name": "voteCount",
              "type": "uint256"
            },
            {
              "internalType": "uint256",
              "name": "nominationNumber",
              "type": "uint256"
            },
            {
              "internalType": "uint8",
              "name": "stateCode",
              "type": "uint8"
            },
            {
              "internalType": "uint8",
              "name": "constituencyCode",
              "type": "uint8"
            }
          ],
          "internalType": "struct Types.Results[]",
          "name": "",
          "type": "tuple[]"
        }
      ],
      "stateMutability": "view",
      "type": "function",
      "constant": true
    }
  ],
  "bytecode": "0x60806040523480156200001157600080fd5b5060405162002cef38038062002cef833981810160405281019062000037919062000ee4565b62000047620000ae60201b60201c565b62000057620005e960201b60201c565b816005819055508060068190555033600460006101000a81548173ffffffffffffffffffffffffffffffffffffffff021916908373ffffffffffffffffffffffffffffffffffffffff16021790555050506200106b565b6000600467ffffffffffffffff811115620000ce57620000cd62000f2b565b5b6040519080825280602002602001820160405280156200010b57816020015b620000f762000dbf565b815260200190600190039081620000ed5790505b5090506040518060a001604052806040518060400160405280601281526020017f4368616e6472612042616275204e61696475000000000000000000000000000081525081526020016040518060400160405280600381526020017f5444500000000000000000000000000000000000000000000000000000000000815250815260200164a96106e5a68152602001600a60ff168152602001600160ff1681525081600081518110620001c357620001c262000f5a565b5b60200260200101819052506040518060a001604052806040518060400160405280601181526020017f4a6167616e204d6f68616e20526564647900000000000000000000000000000081525081526020016040518060400160405280600581526020017f5953524350000000000000000000000000000000000000000000000000000000815250815260200164c27e5da76e8152602001600a60ff168152602001600160ff168152508160018151811062000283576200028262000f5a565b5b60200260200101819052506040518060a001604052806040518060400160405280600e81526020017f47205620416e6a616e6579756c7500000000000000000000000000000000000081525081526020016040518060400160405280600381526020017f5444500000000000000000000000000000000000000000000000000000000000815250815260200164e19f3e55b78152602001600a60ff168152602001600260ff168152508160028151811062000343576200034262000f5a565b5b60200260200101819052506040518060a001604052806040518060400160405280601081526020017f416e696c204b756d61722059616461760000000000000000000000000000000081525081526020016040518060400160405280600581526020017f595352435000000000000000000000000000000000000000000000000000000081525081526020016463f451cce28152602001600a60ff168152602001600260ff168152508160038151811062000403576200040262000f5a565b5b602002602001018190525060005b8151811015620005e55781818151811062000431576200043062000f5a565b5b60200260200101516002600084848151811062000453576200045262000f5a565b5b602002602001015160400151815260200190815260200160002060008201518160000190805190602001906200048b92919062000df4565b506020820151816001019080519060200190620004aa92919062000df4565b506040820151816002015560608201518160030160006101000a81548160ff021916908360ff16021790555060808201518160030160016101000a81548160ff021916908360ff160217905550905050600082828151811062000512576200051162000f5a565b5b6020026020010151908060018154018082558091505060019003906000526020600020906004020160009091909190915060008201518160000190805190602001906200056192919062000df4565b5060208201518160010190805190602001906200058092919062000df4565b506040820151816002015560608201518160030160006101000a81548160ff021916908360ff16021790555060808201518160030160016101000a81548160ff021916908360ff16021790555050508080620005dc9062000fb8565b91505062000411565b5050565b6040518060e0016040528064704892d02481526020016040518060400160405280600681526020017f53757265736800000000000000000000000000000000000000000000000000008152508152602001601560ff168152602001600a60ff168152602001600160ff16815260200160011515815260200160008152506001600064704892d0248152602001908152602001600020600082015181600001556020820151816001019080519060200190620006a692919062000df4565b5060408201518160020160006101000a81548160ff021916908360ff16021790555060608201518160020160016101000a81548160ff021916908360ff16021790555060808201518160020160026101000a81548160ff021916908360ff16021790555060a08201518160020160036101000a81548160ff02191690831515021790555060c082015181600301559050506040518060e00160405280647be4f5771b81526020016040518060400160405280600681526020017f52616d65736800000000000000000000000000000000000000000000000000008152508152602001602560ff168152602001600a60ff168152602001600160ff168152602001600015158152602001600081525060016000647be4f5771b8152602001908152602001600020600082015181600001556020820151816001019080519060200190620007f492919062000df4565b5060408201518160020160006101000a81548160ff021916908360ff16021790555060608201518160020160016101000a81548160ff021916908360ff16021790555060808201518160020160026101000a81548160ff021916908360ff16021790555060a08201518160020160036101000a81548160ff02191690831515021790555060c082015181600301559050506040518060e00160405280646cfae753fe81526020016040518060400160405280600681526020017f4d616865736800000000000000000000000000000000000000000000000000008152508152602001601a60ff168152602001600a60ff168152602001600160ff168152602001600115158152602001600081525060016000646cfae753fe81526020019081526020016000206000820151816000015560208201518160010190805190602001906200094292919062000df4565b5060408201518160020160006101000a81548160ff021916908360ff16021790555060608201518160020160016101000a81548160ff021916908360ff16021790555060808201518160020160026101000a81548160ff021916908360ff16021790555060a08201518160020160036101000a81548160ff02191690831515021790555060c082015181600301559050506040518060e0016040528064bc95724c2d81526020016040518060400160405280600781526020017f4b726973686e61000000000000000000000000000000000000000000000000008152508152602001601360ff168152602001600a60ff168152602001600260ff16815260200160011515815260200160008152506001600064bc95724c2d815260200190815260200160002060008201518160000155602082015181600101908051906020019062000a9092919062000df4565b5060408201518160020160006101000a81548160ff021916908360ff16021790555060608201518160020160016101000a81548160ff021916908360ff16021790555060808201518160020160026101000a81548160ff021916908360ff16021790555060a08201518160020160036101000a81548160ff02191690831515021790555060c082015181600301559050506040518060e0016040528064d38e2fd0d681526020016040518060400160405280600881526020017f4e6172656e6472610000000000000000000000000000000000000000000000008152508152602001602460ff168152602001600a60ff168152602001600260ff16815260200160011515815260200160008152506001600064d38e2fd0d6815260200190815260200160002060008201518160000155602082015181600101908051906020019062000bde92919062000df4565b5060408201518160020160006101000a81548160ff021916908360ff16021790555060608201518160020160016101000a81548160ff021916908360ff16021790555060808201518160020160026101000a81548160ff021916908360ff16021790555060a08201518160020160036101000a81548160ff02191690831515021790555060c082015181600301559050506040518060e0016040528064b1081230bf81526020016040518060400160405280600581526020017f52616768750000000000000000000000000000000000000000000000000000008152508152602001602a60ff168152602001600a60ff168152602001600260ff16815260200160011515815260200160008152506001600064b1081230bf815260200190815260200160002060008201518160000155602082015181600101908051906020019062000d2c92919062000df4565b5060408201518160020160006101000a81548160ff021916908360ff16021790555060608201518160020160016101000a81548160ff021916908360ff16021790555060808201518160020160026101000a81548160ff021916908360ff16021790555060a08201518160020160036101000a81548160ff02191690831515021790555060c08201518160030155905050565b6040518060a00160405280606081526020016060815260200160008152602001600060ff168152602001600060ff1681525090565b82805462000e029062001035565b90600052602060002090601f01602090048101928262000e26576000855562000e72565b82601f1062000e4157805160ff191683800117855562000e72565b8280016001018555821562000e72579182015b8281111562000e7157825182559160200191906001019062000e54565b5b50905062000e81919062000e85565b5090565b5b8082111562000ea057600081600090555060010162000e86565b5090565b600080fd5b6000819050919050565b62000ebe8162000ea9565b811462000eca57600080fd5b50565b60008151905062000ede8162000eb3565b92915050565b6000806040838503121562000efe5762000efd62000ea4565b5b600062000f0e8582860162000ecd565b925050602062000f218582860162000ecd565b9150509250929050565b7f4e487b7100000000000000000000000000000000000000000000000000000000600052604160045260246000fd5b7f4e487b7100000000000000000000000000000000000000000000000000000000600052603260045260246000fd5b7f4e487b7100000000000000000000000000000000000000000000000000000000600052601160045260246000fd5b600062000fc58262000ea9565b91507fffffffffffffffffffffffffffffffffffffffffffffffffffffffffffffffff82141562000ffb5762000ffa62000f89565b5b600182019050919050565b7f4e487b7100000000000000000000000000000000000000000000000000000000600052602260045260246000fd5b600060028204905060018216806200104e57607f821691505b6020821081141562001065576200106462001006565b5b50919050565b611c74806200107b6000396000f3fe608060405234801561001057600080fd5b50600436106100cf5760003560e01c8063618bde0a1161008c5780638a6655d6116100665780638a6655d614610243578063b1bf87b01461025f578063b9d845521461027d578063dce8d8a314610299576100cf565b8063618bde0a146101c557806365e0647d146101f557806381a60c0d14610213576100cf565b80631de43c4b146100d45780631ea736e0146101085780632019a608146101265780633477ee2e146101445780635d816e22146101785780635e23c37c14610194575b600080fd5b6100ee60048036038101906100e99190611435565b6102c9565b6040516100ff959493929190611526565b60405180910390f35b610110610429565b60405161011d9190611587565b60405180910390f35b61012e61042f565b60405161013b9190611587565b60405180910390f35b61015e60048036038101906101599190611435565b610435565b60405161016f959493929190611526565b60405180910390f35b610192600480360381019061018d91906115a2565b6105a5565b005b6101ae60048036038101906101a99190611435565b610626565b6040516101bc9291906116e2565b60405180910390f35b6101df60048036038101906101da9190611435565b6107f7565b6040516101ec9190611851565b60405180910390f35b6101fd610bd9565b60405161020a91906118b4565b60405180910390f35b61022d60048036038101906102289190611435565b610bff565b60405161023a9190611a21565b60405180910390f35b61025d60048036038101906102589190611a43565b610f03565b005b6102676112b1565b6040516102749190611587565b60405180910390f35b610297600480360381019061029291906115a2565b6112bb565b005b6102b360048036038101906102ae9190611435565b61132e565b6040516102c09190611a96565b60405180910390f35b60026020528060005260406000206000915090508060000180546102ec90611ae0565b80601f016020809104026020016040519081016040528092919081815260200182805461031890611ae0565b80156103655780601f1061033a57610100808354040283529160200191610365565b820191906000526020600020905b81548152906001019060200180831161034857829003601f168201915b50505050509080600101805461037a90611ae0565b80601f01602080910402602001604051908101604052809291908181526020018280546103a690611ae0565b80156103f35780601f106103c8576101008083540402835291602001916103f3565b820191906000526020600020905b8154815290600101906020018083116103d657829003601f168201915b5050505050908060020154908060030160009054906101000a900460ff16908060030160019054906101000a900460ff16905085565b60065481565b60055481565b6000818154811061044557600080fd5b906000526020600020906004020160009150905080600001805461046890611ae0565b80601f016020809104026020016040519081016040528092919081815260200182805461049490611ae0565b80156104e15780601f106104b6576101008083540402835291602001916104e1565b820191906000526020600020905b8154815290600101906020018083116104c457829003601f168201915b5050505050908060010180546104f690611ae0565b80601f016020809104026020016040519081016040528092919081815260200182805461052290611ae0565b801561056f5780601f106105445761010080835404028352916020019161056f565b820191906000526020600020905b81548152906001019060200180831161055257829003601f168201915b5050505050908060020154908060030160009054906101000a900460ff16908060030160019054906101000a900460ff16905085565b600460009054906101000a900473ffffffffffffffffffffffffffffffffffffffff1673ffffffffffffffffffffffffffffffffffffffff163373ffffffffffffffffffffffffffffffffffffffff16146105ff57600080fd5b806005541061060d57600080fd5b806006541161061b57600080fd5b816006819055505050565b6000610630611389565b600060016000858152602001908152602001600020600301541415915081156107f25760026000600160008681526020019081526020016000206003015481526020019081526020016000206040518060a001604052908160008201805461069790611ae0565b80601f01602080910402602001604051908101604052809291908181526020018280546106c390611ae0565b80156107105780601f106106e557610100808354040283529160200191610710565b820191906000526020600020905b8154815290600101906020018083116106f357829003601f168201915b5050505050815260200160018201805461072990611ae0565b80601f016020809104026020016040519081016040528092919081815260200182805461075590611ae0565b80156107a25780601f10610777576101008083540402835291602001916107a2565b820191906000526020600020905b81548152906001019060200180831161078557829003601f168201915b50505050508152602001600282015481526020016003820160009054906101000a900460ff1660ff1660ff1681526020016003820160019054906101000a900460ff1660ff1660ff168152505090505b915091565b606060006001600084815260200190815260200160002090506000805b6000805490508110156108e8576000818154811061083557610834611b12565b5b906000526020600020906004020160030160009054906101000a900460ff1660ff168360020160019054906101000a900460ff1660ff161480156108c157506000818154811061088857610887611b12565b5b906000526020600020906004020160030160019054906101000a900460ff1660ff168360020160029054906101000a900460ff1660ff16145b156108d55781806108d190611b70565b9250505b80806108e090611b70565b915050610814565b5060008167ffffffffffffffff81111561090557610904611bb9565b5b60405190808252806020026020018201604052801561093e57816020015b61092b611389565b8152602001906001900390816109235790505b5090506000805b600080549050811015610bcc576000818154811061096657610965611b12565b5b906000526020600020906004020160030160009054906101000a900460ff1660ff168560020160019054906101000a900460ff1660ff161480156109f25750600081815481106109b9576109b8611b12565b5b906000526020600020906004020160030160019054906101000a900460ff1660ff168560020160029054906101000a900460ff1660ff16145b15610bb95760008181548110610a0b57610a0a611b12565b5b90600052602060002090600402016040518060a0016040529081600082018054610a3490611ae0565b80601f0160208091040260200160405190810160405280929190818152602001828054610a6090611ae0565b8015610aad5780601f10610a8257610100808354040283529160200191610aad565b820191906000526020600020905b815481529060010190602001808311610a9057829003601f168201915b50505050508152602001600182018054610ac690611ae0565b80601f0160208091040260200160405190810160405280929190818152602001828054610af290611ae0565b8015610b3f5780601f10610b1457610100808354040283529160200191610b3f565b820191906000526020600020905b815481529060010190602001808311610b2257829003601f168201915b50505050508152602001600282015481526020016003820160009054906101000a900460ff1660ff1660ff1681526020016003820160019054906101000a900460ff1660ff1660ff1681525050838381518110610b9f57610b9e611b12565b5b60200260200101819052508180610bb590611b70565b9250505b8080610bc490611b70565b915050610945565b5081945050505050919050565b600460009054906101000a900473ffffffffffffffffffffffffffffffffffffffff1681565b60608160065410610c0f57600080fd5b6000808054905067ffffffffffffffff811115610c2f57610c2e611bb9565b5b604051908082528060200260200182016040528015610c6857816020015b610c556113be565b815260200190600190039081610c4d5790505b50905060005b600080549050811015610ef9576040518060c0016040528060008381548110610c9a57610c99611b12565b5b90600052602060002090600402016000018054610cb690611ae0565b80601f0160208091040260200160405190810160405280929190818152602001828054610ce290611ae0565b8015610d2f5780601f10610d0457610100808354040283529160200191610d2f565b820191906000526020600020905b815481529060010190602001808311610d1257829003601f168201915b5050505050815260200160008381548110610d4d57610d4c611b12565b5b90600052602060002090600402016001018054610d6990611ae0565b80601f0160208091040260200160405190810160405280929190818152602001828054610d9590611ae0565b8015610de25780601f10610db757610100808354040283529160200191610de2565b820191906000526020600020905b815481529060010190602001808311610dc557829003601f168201915b5050505050815260200160036000808581548110610e0357610e02611b12565b5b906000526020600020906004020160020154815260200190815260200160002054815260200160008381548110610e3d57610e3c611b12565b5b906000526020600020906004020160020154815260200160008381548110610e6857610e67611b12565b5b906000526020600020906004020160030160009054906101000a900460ff1660ff16815260200160008381548110610ea357610ea2611b12565b5b906000526020600020906004020160030160019054906101000a900460ff1660ff16815250828281518110610edb57610eda611b12565b5b60200260200101819052508080610ef190611b70565b915050610c6e565b5080915050919050565b80600554811015610f1357600080fd5b600654811115610f2257600080fd5b82846000600160008481526020019081526020016000206040518060e001604052908160008201548152602001600182018054610f5e90611ae0565b80601f0160208091040260200160405190810160405280929190818152602001828054610f8a90611ae0565b8015610fd75780601f10610fac57610100808354040283529160200191610fd7565b820191906000526020600020905b815481529060010190602001808311610fba57829003601f168201915b505050505081526020016002820160009054906101000a900460ff1660ff1660ff1681526020016002820160019054906101000a900460ff1660ff1660ff1681526020016002820160029054906101000a900460ff1660ff1660ff1681526020016002820160039054906101000a900460ff1615151515815260200160038201548152505090506000600260008481526020019081526020016000206040518060a001604052908160008201805461108e90611ae0565b80601f01602080910402602001604051908101604052809291908181526020018280546110ba90611ae0565b80156111075780601f106110dc57610100808354040283529160200191611107565b820191906000526020600020905b8154815290600101906020018083116110ea57829003601f168201915b5050505050815260200160018201805461112090611ae0565b80601f016020809104026020016040519081016040528092919081815260200182805461114c90611ae0565b80156111995780601f1061116e57610100808354040283529160200191611199565b820191906000526020600020905b81548152906001019060200180831161117c57829003601f168201915b50505050508152602001600282015481526020016003820160009054906101000a900460ff1660ff1660ff1681526020016003820160019054906101000a900460ff1660ff1660ff168152505090506012826040015160ff1610156111fd57600080fd5b8160a0015161120b57600080fd5b60008260c001511461121c57600080fd5b816060015160ff16816060015160ff161480156112465750816080015160ff16816080015160ff16145b61124f57600080fd5b8760016000898152602001908152602001600020600301819055506000600360008a815260200190815260200160002054905060018161128f9190611be8565b600360008b815260200190815260200160002081905550505050505050505050565b6000600654905090565b600460009054906101000a900473ffffffffffffffffffffffffffffffffffffffff1673ffffffffffffffffffffffffffffffffffffffff163373ffffffffffffffffffffffffffffffffffffffff161461131557600080fd5b806005541161132357600080fd5b816005819055505050565b60008060016000848152602001908152602001600020905060128160020160009054906101000a900460ff1660ff161015801561137957508060020160039054906101000a900460ff165b1561138357600191505b50919050565b6040518060a00160405280606081526020016060815260200160008152602001600060ff168152602001600060ff1681525090565b6040518060c0016040528060608152602001606081526020016000815260200160008152602001600060ff168152602001600060ff1681525090565b600080fd5b6000819050919050565b611412816113ff565b811461141d57600080fd5b50565b60008135905061142f81611409565b92915050565b60006020828403121561144b5761144a6113fa565b5b600061145984828501611420565b91505092915050565b600081519050919050565b600082825260208201905092915050565b60005b8381101561149c578082015181840152602081019050611481565b838111156114ab576000848401525b50505050565b6000601f19601f8301169050919050565b60006114cd82611462565b6114d7818561146d565b93506114e781856020860161147e565b6114f0816114b1565b840191505092915050565b611504816113ff565b82525050565b600060ff82169050919050565b6115208161150a565b82525050565b600060a082019050818103600083015261154081886114c2565b9050818103602083015261155481876114c2565b905061156360408301866114fb565b6115706060830185611517565b61157d6080830184611517565b9695505050505050565b600060208201905061159c60008301846114fb565b92915050565b600080604083850312156115b9576115b86113fa565b5b60006115c785828601611420565b92505060206115d885828601611420565b9150509250929050565b60008115159050919050565b6115f7816115e2565b82525050565b600082825260208201905092915050565b600061161982611462565b61162381856115fd565b935061163381856020860161147e565b61163c816114b1565b840191505092915050565b611650816113ff565b82525050565b61165f8161150a565b82525050565b600060a0830160008301518482036000860152611682828261160e565b9150506020830151848203602086015261169c828261160e565b91505060408301516116b16040860182611647565b5060608301516116c46060860182611656565b5060808301516116d76080860182611656565b508091505092915050565b60006040820190506116f760008301856115ee565b81810360208301526117098184611665565b90509392505050565b600081519050919050565b600082825260208201905092915050565b6000819050602082019050919050565b600060a083016000830151848203600086015261175b828261160e565b91505060208301518482036020860152611775828261160e565b915050604083015161178a6040860182611647565b50606083015161179d6060860182611656565b5060808301516117b06080860182611656565b508091505092915050565b60006117c7838361173e565b905092915050565b6000602082019050919050565b60006117e782611712565b6117f1818561171d565b9350836020820285016118038561172e565b8060005b8581101561183f578484038952815161182085826117bb565b945061182b836117cf565b925060208a01995050600181019050611807565b50829750879550505050505092915050565b6000602082019050818103600083015261186b81846117dc565b905092915050565b600073ffffffffffffffffffffffffffffffffffffffff82169050919050565b600061189e82611873565b9050919050565b6118ae81611893565b82525050565b60006020820190506118c960008301846118a5565b92915050565b600081519050919050565b600082825260208201905092915050565b6000819050602082019050919050565b600060c0830160008301518482036000860152611918828261160e565b91505060208301518482036020860152611932828261160e565b91505060408301516119476040860182611647565b50606083015161195a6060860182611647565b50608083015161196d6080860182611656565b5060a083015161198060a0860182611656565b508091505092915050565b600061199783836118fb565b905092915050565b6000602082019050919050565b60006119b7826118cf565b6119c181856118da565b9350836020820285016119d3856118eb565b8060005b85811015611a0f57848403895281516119f0858261198b565b94506119fb8361199f565b925060208a019950506001810190506119d7565b50829750879550505050505092915050565b60006020820190508181036000830152611a3b81846119ac565b905092915050565b600080600060608486031215611a5c57611a5b6113fa565b5b6000611a6a86828701611420565b9350506020611a7b86828701611420565b9250506040611a8c86828701611420565b9150509250925092565b6000602082019050611aab60008301846115ee565b92915050565b7f4e487b7100000000000000000000000000000000000000000000000000000000600052602260045260246000fd5b60006002820490506001821680611af857607f821691505b60208210811415611b0c57611b0b611ab1565b5b50919050565b7f4e487b7100000000000000000000000000000000000000000000000000000000600052603260045260246000fd5b7f4e487b7100000000000000000000000000000000000000000000000000000000600052601160045260246000fd5b6000611b7b826113ff565b91507fffffffffffffffffffffffffffffffffffffffffffffffffffffffffffffffff821415611bae57611bad611b41565b5b600182019050919050565b7f4e487b7100000000000000000000000000000000000000000000000000000000600052604160045260246000fd5b6000611bf3826113ff565b9150611bfe836113ff565b9250827fffffffffffffffffffffffffffffffffffffffffffffffffffffffffffffffff03821115611c3357611c32611b41565b5b82820190509291505056fea2646970667358221220dab4e2623b708a0ab176ade2c47cb40ced5462ee75334e5588376a1f1b9e622c64736f6c634300080b0033",
  "immutableReferences": {},
  "source": "// SPDX-License-Identifier: MIT\r\npragma solidity ^0.8.10;\r\n\r\nimport \"./Types.sol\";\r\n\r\ncontract EVoting {\r\n    Types.Candidate[] public candidates;\r\n    mapping(uint256 => Types.Voter) voter;\r\n    mapping(uint256 => Types.Candidate) public candidate;\r\n    mapping(uint256 => uint256) internal votesCount;\r\n\r\n    address public electionChief;\r\n    uint256 public votingStartTime;\r\n    uint256 public votingEndTime;\r\n\r\n    constructor(uint256 startTime_, uint256 endTime_) {\r\n        initializeCandidateDatabase_();\r\n        initializeVoterDatabase_();\r\n        votingStartTime = startTime_;\r\n        votingEndTime = endTime_;\r\n        electionChief = msg.sender;\r\n    }\r\n\r\n    function getCandidateList(uint256 voterAadharNumber)\r\n        public\r\n        view\r\n        returns (Types.Candidate[] memory)\r\n    {\r\n        Types.Voter storage voter_ = voter[voterAadharNumber];\r\n        uint256 _politicianOfMyConstituencyLength = 0;\r\n\r\n        for (uint256 i = 0; i < candidates.length; i++) {\r\n            if (\r\n                voter_.stateCode == candidates[i].stateCode &&\r\n                voter_.constituencyCode == candidates[i].constituencyCode\r\n            ) _politicianOfMyConstituencyLength++;\r\n        }\r\n        Types.Candidate[] memory cc = new Types.Candidate[](\r\n            _politicianOfMyConstituencyLength\r\n        );\r\n\r\n        uint256 _indx = 0;\r\n        for (uint256 i = 0; i < candidates.length; i++) {\r\n            if (\r\n                voter_.stateCode == candidates[i].stateCode &&\r\n                voter_.constituencyCode == candidates[i].constituencyCode\r\n            ) {\r\n                cc[_indx] = candidates[i];\r\n                _indx++;\r\n            }\r\n        }\r\n        return cc;\r\n    }\r\n\r\n    function isVoterEligible(uint256 voterAadharNumber)\r\n        public\r\n        view\r\n        returns (bool voterEligible_)\r\n    {\r\n        Types.Voter storage voter_ = voter[voterAadharNumber];\r\n        if (voter_.age >= 18 && voter_.isAlive) voterEligible_ = true;\r\n    }\r\n\r\n    function didCurrentVoterVoted(uint256 voterAadharNumber)\r\n        public\r\n        view\r\n        returns (bool userVoted_, Types.Candidate memory candidate_)\r\n    {\r\n        userVoted_ = (voter[voterAadharNumber].votedTo != 0);\r\n        if (userVoted_)\r\n            candidate_ = candidate[voter[voterAadharNumber].votedTo];\r\n    }\r\n\r\n    function vote(\r\n        uint256 nominationNumber,\r\n        uint256 voterAadharNumber,\r\n        uint256 currentTime_\r\n    )\r\n        public\r\n        votingLinesAreOpen(currentTime_)\r\n        isEligibleVote(voterAadharNumber, nominationNumber)\r\n    {\r\n        voter[voterAadharNumber].votedTo = nominationNumber;\r\n\r\n        uint256 voteCount_ = votesCount[nominationNumber];\r\n        votesCount[nominationNumber] = voteCount_ + 1;\r\n    }\r\n\r\n    function getVotingEndTime() public view returns (uint256 endTime_) {\r\n        endTime_ = votingEndTime;\r\n    }\r\n\r\n    function updateVotingStartTime(uint256 startTime_, uint256 currentTime_)\r\n        public\r\n        isElectionChief\r\n    {\r\n        require(votingStartTime > currentTime_);\r\n        votingStartTime = startTime_;\r\n    }\r\n\r\n    function extendVotingTime(uint256 endTime_, uint256 currentTime_)\r\n        public\r\n        isElectionChief\r\n    {\r\n        require(votingStartTime < currentTime_);\r\n        require(votingEndTime > currentTime_);\r\n        votingEndTime = endTime_;\r\n    }\r\n\r\n    function getResults(uint256 currentTime_)\r\n        public\r\n        view\r\n        returns (Types.Results[] memory)\r\n    {\r\n        require(votingEndTime < currentTime_);\r\n        Types.Results[] memory resultsList_ = new Types.Results[](\r\n            candidates.length\r\n        );\r\n        for (uint256 i = 0; i < candidates.length; i++) {\r\n            resultsList_[i] = Types.Results({\r\n                name: candidates[i].name,\r\n                partyName: candidates[i].partyName,\r\n                nominationNumber: candidates[i].nominationNumber,\r\n                stateCode: candidates[i].stateCode,\r\n                constituencyCode: candidates[i].constituencyCode,\r\n                voteCount: votesCount[candidates[i].nominationNumber]\r\n            });\r\n        }\r\n        return resultsList_;\r\n    }\r\n\r\n    modifier votingLinesAreOpen(uint256 currentTime_) {\r\n        require(currentTime_ >= votingStartTime);\r\n        require(currentTime_ <= votingEndTime);\r\n        _;\r\n    }\r\n\r\n    modifier isEligibleVote(uint256 voterAadhar_, uint256 nominationNumber_) {\r\n        Types.Voter memory voter_ = voter[voterAadhar_];\r\n        Types.Candidate memory politician_ = candidate[nominationNumber_];\r\n        require(voter_.age >= 18);\r\n        require(voter_.isAlive);\r\n        require(voter_.votedTo == 0);\r\n        require(\r\n            (politician_.stateCode == voter_.stateCode &&\r\n                politician_.constituencyCode == voter_.constituencyCode)\r\n        );\r\n        _;\r\n    }\r\n\r\n    modifier isElectionChief() {\r\n        require(msg.sender == electionChief);\r\n        _;\r\n    }\r\n\r\n    function initializeCandidateDatabase_() internal {\r\n        Types.Candidate[] memory candidates_ = new Types.Candidate[](4);\r\n\r\n        // Gujarat\r\n        candidates_[0] = Types.Candidate({\r\n            name: \"Chandra Babu Naidu\",\r\n            partyName: \"TDP\",\r\n            nominationNumber: uint256(727477314982),\r\n            stateCode: uint8(10),\r\n            constituencyCode: uint8(1)\r\n        });\r\n        candidates_[1] = Types.Candidate({\r\n            name: \"Jagan Mohan Reddy\",\r\n            partyName: \"YSRCP\",\r\n            nominationNumber: uint256(835343722350),\r\n            stateCode: uint8(10),\r\n            constituencyCode: uint8(1)\r\n        });\r\n        candidates_[2] = Types.Candidate({\r\n            name: \"G V Anjaneyulu\",\r\n            partyName: \"TDP\",\r\n            nominationNumber: uint256(969039304119),\r\n            stateCode: uint8(10),\r\n            constituencyCode: uint8(2)\r\n        });\r\n        candidates_[3] = Types.Candidate({\r\n            name: \"Anil Kumar Yadav\",\r\n            partyName: \"YSRCP\",\r\n            nominationNumber: uint256(429300763874),\r\n            stateCode: uint8(10),\r\n            constituencyCode: uint8(2)\r\n        });\r\n\r\n        for (uint256 i = 0; i < candidates_.length; i++) {\r\n            candidate[candidates_[i].nominationNumber] = candidates_[i];\r\n            candidates.push(candidates_[i]);\r\n        }\r\n    }\r\n\r\n    function initializeVoterDatabase_() internal {\r\n        // Gujarat\r\n        voter[uint256(482253918244)] = Types.Voter({\r\n            name: \"Suresh\",\r\n            aadharNumber: uint256(482253918244),\r\n            age: uint8(21),\r\n            stateCode: uint8(10),\r\n            constituencyCode: uint8(1),\r\n            isAlive: true,\r\n            votedTo: uint256(0)\r\n        });\r\n        voter[uint256(532122269467)] = Types.Voter({\r\n            name: \"Ramesh\",\r\n            aadharNumber: uint256(532122269467),\r\n            age: uint8(37),\r\n            stateCode: uint8(10),\r\n            constituencyCode: uint8(1),\r\n            isAlive: false,\r\n            votedTo: uint256(0)\r\n        });\r\n        voter[uint256(468065932286)] = Types.Voter({\r\n            name: \"Mahesh\",\r\n            aadharNumber: uint256(468065932286),\r\n            age: uint8(26),\r\n            stateCode: uint8(10),\r\n            constituencyCode: uint8(1),\r\n            isAlive: true,\r\n            votedTo: uint256(0)\r\n        });\r\n        voter[uint256(809961147437)] = Types.Voter({\r\n            name: \"Krishna\",\r\n            aadharNumber: uint256(809961147437),\r\n            age: uint8(19),\r\n            stateCode: uint8(10),\r\n            constituencyCode: uint8(2),\r\n            isAlive: true,\r\n            votedTo: uint256(0)\r\n        });\r\n        voter[uint256(908623597782)] = Types.Voter({\r\n            name: \"Narendra\",\r\n            aadharNumber: uint256(908623597782),\r\n            age: uint8(36),\r\n            stateCode: uint8(10),\r\n            constituencyCode: uint8(2),\r\n            isAlive: true,\r\n            votedTo: uint256(0)\r\n        });\r\n        voter[uint256(760344621247)] = Types.Voter({\r\n            name: \"Raghu\",\r\n            aadharNumber: uint256(760344621247),\r\n            age: uint8(42),\r\n            stateCode: uint8(10),\r\n            constituencyCode: uint8(2),\r\n            isAlive: true,\r\n            votedTo: uint256(0)\r\n        });\r\n    }\r\n}\r\n",
  "sourcePath": "D:\\Sem 7\\Blockchain Technology\\Practical 7\\E-Voting\\Evoting\\contracts\\EVoting.sol",
  "compiler": {
    "name": "solc",
    "version": "0.8.11+commit.d7f03943.Emscripten.clang"
  },
  "schemaVersion": "3.4.8",
  "updatedAt": "2022-11-01T04:53:16.796Z",
  "networkType": "ethereum",
  "devdoc": {
    "kind": "dev",
    "methods": {},
    "version": 1
  },
  "userdoc": {
    "kind": "user",
    "methods": {},
    "version": 1
  }
}